{"contracts/MockZKVerifier.sol":{"MockZKVerifier":{"abi":[{"anonymous":false,"inputs":[{"indexed":true,"internalType":"address","name":"prover","type":"address"},{"indexed":false,"internalType":"bool","name":"result","type":"bool"}],"name":"ProofVerified","type":"event"},{"inputs":[{"internalType":"bytes","name":"proof","type":"bytes"},{"internalType":"uint256[]","name":"publicSignals","type":"uint256[]"}],"name":"verifyProof","outputs":[{"internalType":"bool","name":"","type":"bool"}],"stateMutability":"nonpayable","type":"function"},{"inputs":[{"internalType":"bytes","name":"proof","type":"bytes"},{"internalType":"uint256[]","name":"publicSignals","type":"uint256[]"}],"name":"verifyProofView","outputs":[{"internalType":"bool","name":"","type":"bool"}],"stateMutability":"pure","type":"function"}],"evm":{"bytecode":{"linkReferences":{},"object":"608060405234801561001057600080fd5b5061028d806100206000396000f3fe608060405234801561001057600080fd5b50600436106100365760003560e01c80631e8e1e131461003b578063a537894b14610062575b600080fd5b61004e61004936600461017c565b610075565b604051901515815260200160405180910390f35b61004e61007036600461017c565b610116565b6000808415801590610088575060028310155b80156100ad5750838360008181106100a2576100a2610241565b905060200201356001145b80156100d357506001848460018181106100c9576100c9610241565b9050602002013510155b604051811515815290915033907f67138ba576c85b9348a42249a156ac9e82c361ab57372970c581a0c36c9673e99060200160405180910390a295945050505050565b60008315801590610128575060028210155b801561014d57508282600081811061014257610142610241565b905060200201356001145b8015610173575060018383600181811061016957610169610241565b9050602002013510155b95945050505050565b6000806000806040858703121561019257600080fd5b843567ffffffffffffffff808211156101aa57600080fd5b818701915087601f8301126101be57600080fd5b8135818111156101cd57600080fd5b8860208285010111156101df57600080fd5b6020928301965094509086013590808211156101fa57600080fd5b818701915087601f83011261020e57600080fd5b81358181111561021d57600080fd5b8860208260051b850101111561023257600080fd5b95989497505060200194505050565b634e487b7160e01b600052603260045260246000fdfea26469706673582212205fb6cf2ef0bdf071d2917b5f991e96e93adfedf6ae3827c6f99c3fb4ec6dbad964736f6c63430008140033","opcodes":"PUSH1 0x80 PUSH1 0x40 MSTORE CALLVALUE DUP1 ISZERO PUSH2 0x10 JUMPI PUSH1 0x0 DUP1 REVERT JUMPDEST POP PUSH2 0x28D DUP1 PUSH2 0x20 PUSH1 0x0 CODECOPY PUSH1 0x0 RETURN INVALID PUSH1 0x80 PUSH1 0x40 MSTORE CALLVALUE DUP1 ISZERO PUSH2 0x10 JUMPI PUSH1 0x0 DUP1 REVERT JUMPDEST POP PUSH1 0x4 CALLDATASIZE LT PUSH2 0x36 JUMPI PUSH1 0x0 CALLDATALOAD PUSH1 0xE0 SHR DUP1 PUSH4 0x1E8E1E13 EQ PUSH2 0x3B JUMPI DUP1 PUSH4 0xA537894B EQ PUSH2 0x62 JUMPI JUMPDEST PUSH1 0x0 DUP1 REVERT JUMPDEST PUSH2 0x4E PUSH2 0x49 CALLDATASIZE PUSH1 0x4 PUSH2 0x17C JUMP JUMPDEST PUSH2 0x75 JUMP JUMPDEST PUSH1 0x40 MLOAD SWAP1 ISZERO ISZERO DUP2 MSTORE PUSH1 0x20 ADD PUSH1 0x40 MLOAD DUP1 SWAP2 SUB SWAP1 RETURN JUMPDEST PUSH2 0x4E PUSH2 0x70 CALLDATASIZE PUSH1 0x4 PUSH2 0x17C JUMP JUMPDEST PUSH2 0x116 JUMP JUMPDEST PUSH1 0x0 DUP1 DUP5 ISZERO DUP1 ISZERO SWAP1 PUSH2 0x88 JUMPI POP PUSH1 0x2 DUP4 LT ISZERO JUMPDEST DUP1 ISZERO PUSH2 0xAD JUMPI POP DUP4 DUP4 PUSH1 0x0 DUP2 DUP2 LT PUSH2 0xA2 JUMPI PUSH2 0xA2 PUSH2 0x241 JUMP JUMPDEST SWAP1 POP PUSH1 0x20 MUL ADD CALLDATALOAD PUSH1 0x1 EQ JUMPDEST DUP1 ISZERO PUSH2 0xD3 JUMPI POP PUSH1 0x1 DUP5 DUP5 PUSH1 0x1 DUP2 DUP2 LT PUSH2 0xC9 JUMPI PUSH2 0xC9 PUSH2 0x241 JUMP JUMPDEST SWAP1 POP PUSH1 0x20 MUL ADD CALLDATALOAD LT ISZERO JUMPDEST PUSH1 0x40 MLOAD DUP2 ISZERO ISZERO DUP2 MSTORE SWAP1 SWAP2 POP CALLER SWAP1 PUSH32 0x67138BA576C85B9348A42249A156AC9E82C361AB57372970C581A0C36C9673E9 SWAP1 PUSH1 0x20 ADD PUSH1 0x40 MLOAD DUP1 SWAP2 SUB SWAP1 LOG2 SWAP6 SWAP5 POP POP POP POP POP JUMP JUMPDEST PUSH1 0x0 DUP4 ISZERO DUP1 ISZERO SWAP1 PUSH2 0x128 JUMPI POP PUSH1 0x2 DUP3 LT ISZERO JUMPDEST DUP1 ISZERO PUSH2 0x14D JUMPI POP DUP3 DUP3 PUSH1 0x0 DUP2 DUP2 LT PUSH2 0x142 JUMPI PUSH2 0x142 PUSH2 0x241 JUMP JUMPDEST SWAP1 POP PUSH1 0x20 MUL ADD CALLDATALOAD PUSH1 0x1 EQ JUMPDEST DUP1 ISZERO PUSH2 0x173 JUMPI POP PUSH1 0x1 DUP4 DUP4 PUSH1 0x1 DUP2 DUP2 LT PUSH2 0x169 JUMPI PUSH2 0x169 PUSH2 0x241 JUMP JUMPDEST SWAP1 POP PUSH1 0x20 MUL ADD CALLDATALOAD LT ISZERO JUMPDEST SWAP6 SWAP5 POP POP POP POP POP JUMP JUMPDEST PUSH1 0x0 DUP1 PUSH1 0x0 DUP1 PUSH1 0x40 DUP6 DUP8 SUB SLT ISZERO PUSH2 0x192 JUMPI PUSH1 0x0 DUP1 REVERT JUMPDEST DUP5 CALLDATALOAD PUSH8 0xFFFFFFFFFFFFFFFF DUP1 DUP3 GT ISZERO PUSH2 0x1AA JUMPI PUSH1 0x0 DUP1 REVERT JUMPDEST DUP2 DUP8 ADD SWAP2 POP DUP8 PUSH1 0x1F DUP4 ADD SLT PUSH2 0x1BE JUMPI PUSH1 0x0 DUP1 REVERT JUMPDEST DUP2 CALLDATALOAD DUP2 DUP2 GT ISZERO PUSH2 0x1CD JUMPI PUSH1 0x0 DUP1 REVERT JUMPDEST DUP9 PUSH1 0x20 DUP3 DUP6 ADD ADD GT ISZERO PUSH2 0x1DF JUMPI PUSH1 0x0 DUP1 REVERT JUMPDEST PUSH1 0x20 SWAP3 DUP4 ADD SWAP7 POP SWAP5 POP SWAP1 DUP7 ADD CALLDATALOAD SWAP1 DUP1 DUP3 GT ISZERO PUSH2 0x1FA JUMPI PUSH1 0x0 DUP1 REVERT JUMPDEST DUP2 DUP8 ADD SWAP2 POP DUP8 PUSH1 0x1F DUP4 ADD SLT PUSH2 0x20E JUMPI PUSH1 0x0 DUP1 REVERT JUMPDEST DUP2 CALLDATALOAD DUP2 DUP2 GT ISZERO PUSH2 0x21D JUMPI PUSH1 0x0 DUP1 REVERT JUMPDEST DUP9 PUSH1 0x20 DUP3 PUSH1 0x5 SHL DUP6 ADD ADD GT ISZERO PUSH2 0x232 JUMPI PUSH1 0x0 DUP1 REVERT JUMPDEST SWAP6 SWAP9 SWAP5 SWAP8 POP POP PUSH1 0x20 ADD SWAP5 POP POP POP JUMP JUMPDEST PUSH4 0x4E487B71 PUSH1 0xE0 SHL PUSH1 0x0 MSTORE PUSH1 0x32 PUSH1 0x4 MSTORE PUSH1 0x24 PUSH1 0x0 REVERT INVALID LOG2 PUSH5 0x6970667358 0x22 SLT KECCAK256 PUSH0 0xB6 0xCF 0x2E CREATE 0xBD CREATE PUSH18 0xD2917B5F991E96E93ADFEDF6AE3827C6F99C EXTCODEHASH 0xB4 0xEC PUSH14 0xBAD964736F6C6343000814003300 "},"methodIdentifiers":{"verifyProof(bytes,uint256[])":"1e8e1e13","verifyProofView(bytes,uint256[])":"a537894b"}}}}}