{
  "_format": "hh-sol-artifact-1",
  "contractName": "MockZKVerifier",
  "sourceName": "contracts/MockZKVerifier.sol",
  "abi": [
    {
      "anonymous": false,
      "inputs": [
        {
          "indexed": true,
          "internalType": "address",
          "name": "prover",
          "type": "address"
        },
        {
          "indexed": false,
          "internalType": "bool",
          "name": "result",
          "type": "bool"
        }
      ],
      "name": "ProofVerified",
      "type": "event"
    },
    {
      "inputs": [
        {
          "internalType": "bytes",
          "name": "proof",
          "type": "bytes"
        },
        {
          "internalType": "uint256[]",
          "name": "publicSignals",
          "type": "uint256[]"
        }
      ],
      "name": "verifyProof",
      "outputs": [
        {
          "internalType": "bool",
          "name": "",
          "type": "bool"
        }
      ],
      "stateMutability": "nonpayable",
      "type": "function"
    },
    {
      "inputs": [
        {
          "internalType": "bytes",
          "name": "proof",
          "type": "bytes"
        },
        {
          "internalType": "uint256[]",
          "name": "publicSignals",
          "type": "uint256[]"
        }
      ],
      "name": "verifyProofView",
      "outputs": [
        {
          "internalType": "bool",
          "name": "",
          "type": "bool"
        }
      ],
      "stateMutability": "pure",
      "type": "function"
    }
  ],
  "bytecode": "0x608060405234801561001057600080fd5b5061028d806100206000396000f3fe608060405234801561001057600080fd5b50600436106100365760003560e01c80631e8e1e131461003b578063a537894b14610062575b600080fd5b61004e61004936600461017c565b610075565b604051901515815260200160405180910390f35b61004e61007036600461017c565b610116565b6000808415801590610088575060028310155b80156100ad5750838360008181106100a2576100a2610241565b905060200201356001145b80156100d357506001848460018181106100c9576100c9610241565b9050602002013510155b604051811515815290915033907f67138ba576c85b9348a42249a156ac9e82c361ab57372970c581a0c36c9673e99060200160405180910390a295945050505050565b60008315801590610128575060028210155b801561014d57508282600081811061014257610142610241565b905060200201356001145b8015610173575060018383600181811061016957610169610241565b9050602002013510155b95945050505050565b6000806000806040858703121561019257600080fd5b843567ffffffffffffffff808211156101aa57600080fd5b818701915087601f8301126101be57600080fd5b8135818111156101cd57600080fd5b8860208285010111156101df57600080fd5b6020928301965094509086013590808211156101fa57600080fd5b818701915087601f83011261020e57600080fd5b81358181111561021d57600080fd5b8860208260051b850101111561023257600080fd5b95989497505060200194505050565b634e487b7160e01b600052603260045260246000fdfea26469706673582212205fb6cf2ef0bdf071d2917b5f991e96e93adfedf6ae3827c6f99c3fb4ec6dbad964736f6c63430008140033",
  "linkReferences": {},
  "deployedLinkReferences": {}
}